{
  "_format": "hh-sol-artifact-1",
  "contractName": "HumanFiGovernance",
  "sourceName": "contracts/HumanFiGovernance.sol",
  "abi": [
    {
      "inputs": [
        {
          "internalType": "address",
          "name": "_wldToken",
          "type": "address"
        },
        {
          "internalType": "address",
          "name": "_worldIdRouter",
          "type": "address"
        },
        {
          "internalType": "string",
          "name": "_appId",
          "type": "string"
        }
      ],
      "stateMutability": "nonpayable",
      "type": "constructor"
    },
    {
      "inputs": [
        {
          "internalType": "address",
          "name": "owner",
          "type": "address"
        }
      ],
      "name": "OwnableInvalidOwner",
      "type": "error"
    },
    {
      "inputs": [
        {
          "internalType": "address",
          "name": "account",
          "type": "address"
        }
      ],
      "name": "OwnableUnauthorizedAccount",
      "type": "error"
    },
    {
      "inputs": [
        {
          "internalType": "address",
          "name": "token",
          "type": "address"
        }
      ],
      "name": "SafeERC20FailedOperation",
      "type": "error"
    },
    {
      "anonymous": false,
      "inputs": [
        {
          "indexed": true,
          "internalType": "address",
          "name": "previousOwner",
          "type": "address"
        },
        {
          "indexed": true,
          "internalType": "address",
          "name": "newOwner",
          "type": "address"
        }
      ],
      "name": "OwnershipTransferred",
      "type": "event"
    },
    {
      "anonymous": false,
      "inputs": [
        {
          "indexed": true,
          "internalType": "address",
          "name": "user",
          "type": "address"
        },
        {
          "indexed": false,
          "internalType": "uint256",
          "name": "nullifierHash",
          "type": "uint256"
        }
      ],
      "name": "Voted",
      "type": "event"
    },
    {
      "anonymous": false,
      "inputs": [
        {
          "indexed": true,
          "internalType": "address",
          "name": "user",
          "type": "address"
        },
        {
          "indexed": false,
          "internalType": "uint256",
          "name": "amount",
          "type": "uint256"
        }
      ],
      "name": "ZapExecuted",
      "type": "event"
    },
    {
      "inputs": [],
      "name": "externalNullifier",
      "outputs": [
        {
          "internalType": "uint256",
          "name": "",
          "type": "uint256"
        }
      ],
      "stateMutability": "view",
      "type": "function"
    },
    {
      "inputs": [
        {
          "internalType": "uint256",
          "name": "",
          "type": "uint256"
        }
      ],
      "name": "nullifierHasVoted",
      "outputs": [
        {
          "internalType": "bool",
          "name": "",
          "type": "bool"
        }
      ],
      "stateMutability": "view",
      "type": "function"
    },
    {
      "inputs": [],
      "name": "owner",
      "outputs": [
        {
          "internalType": "address",
          "name": "",
          "type": "address"
        }
      ],
      "stateMutability": "view",
      "type": "function"
    },
    {
      "inputs": [],
      "name": "renounceOwnership",
      "outputs": [],
      "stateMutability": "nonpayable",
      "type": "function"
    },
    {
      "inputs": [
        {
          "internalType": "address",
          "name": "newOwner",
          "type": "address"
        }
      ],
      "name": "transferOwnership",
      "outputs": [],
      "stateMutability": "nonpayable",
      "type": "function"
    },
    {
      "inputs": [
        {
          "internalType": "uint256",
          "name": "root",
          "type": "uint256"
        },
        {
          "internalType": "uint256",
          "name": "nullifierHash",
          "type": "uint256"
        },
        {
          "internalType": "uint256[8]",
          "name": "proof",
          "type": "uint256[8]"
        }
      ],
      "name": "voteWithWorldID",
      "outputs": [],
      "stateMutability": "nonpayable",
      "type": "function"
    },
    {
      "inputs": [
        {
          "internalType": "address",
          "name": "",
          "type": "address"
        }
      ],
      "name": "votingPower",
      "outputs": [
        {
          "internalType": "uint256",
          "name": "",
          "type": "uint256"
        }
      ],
      "stateMutability": "view",
      "type": "function"
    },
    {
      "inputs": [],
      "name": "wldToken",
      "outputs": [
        {
          "internalType": "contract IERC20",
          "name": "",
          "type": "address"
        }
      ],
      "stateMutability": "view",
      "type": "function"
    },
    {
      "inputs": [],
      "name": "worldIdRouter",
      "outputs": [
        {
          "internalType": "contract IWorldID",
          "name": "",
          "type": "address"
        }
      ],
      "stateMutability": "view",
      "type": "function"
    },
    {
      "inputs": [
        {
          "internalType": "uint256",
          "name": "amount",
          "type": "uint256"
        }
      ],
      "name": "zap",
      "outputs": [],
      "stateMutability": "nonpayable",
      "type": "function"
    }
  ],
  "bytecode": "0x60e06040523480156200001157600080fd5b50604051620014ed380380620014ed833981810160405281019062000037919062000452565b33600073ffffffffffffffffffffffffffffffffffffffff168173ffffffffffffffffffffffffffffffffffffffff1603620000ad5760006040517f1e4fbdf7000000000000000000000000000000000000000000000000000000008152600401620000a49190620004de565b60405180910390fd5b620000be816200019660201b60201c565b508273ffffffffffffffffffffffffffffffffffffffff1660808173ffffffffffffffffffffffffffffffffffffffff16815250508173ffffffffffffffffffffffffffffffffffffffff1660a08173ffffffffffffffffffffffffffffffffffffffff1681525050806040516020016200013a919062000548565b6040516020818303038152906040528051906020012060405160200162000162919062000590565b604051602081830303815290604052806020019051810190620001869190620005e8565b60c081815250505050506200061a565b60008060009054906101000a900473ffffffffffffffffffffffffffffffffffffffff169050816000806101000a81548173ffffffffffffffffffffffffffffffffffffffff021916908373ffffffffffffffffffffffffffffffffffffffff1602179055508173ffffffffffffffffffffffffffffffffffffffff168173ffffffffffffffffffffffffffffffffffffffff167f8be0079c531659141344cd1fd0a4f28419497f9722a3daafe3b4186f6b6457e060405160405180910390a35050565b6000604051905090565b600080fd5b600080fd5b600073ffffffffffffffffffffffffffffffffffffffff82169050919050565b60006200029b826200026e565b9050919050565b620002ad816200028e565b8114620002b957600080fd5b50565b600081519050620002cd81620002a2565b92915050565b600080fd5b600080fd5b6000601f19601f8301169050919050565b7f4e487b7100000000000000000000000000000000000000000000000000000000600052604160045260246000fd5b6200032882620002dd565b810181811067ffffffffffffffff821117156200034a5762000349620002ee565b5b80604052505050565b60006200035f6200025a565b90506200036d82826200031d565b919050565b600067ffffffffffffffff82111562000390576200038f620002ee565b5b6200039b82620002dd565b9050602081019050919050565b60005b83811015620003c8578082015181840152602081019050620003ab565b60008484015250505050565b6000620003eb620003e58462000372565b62000353565b9050828152602081018484840111156200040a5762000409620002d8565b5b62000417848285620003a8565b509392505050565b600082601f830112620004375762000436620002d3565b5b815162000449848260208601620003d4565b91505092915050565b6000806000606084860312156200046e576200046d62000264565b5b60006200047e86828701620002bc565b93505060206200049186828701620002bc565b925050604084015167ffffffffffffffff811115620004b557620004b462000269565b5b620004c3868287016200041f565b9150509250925092565b620004d8816200028e565b82525050565b6000602082019050620004f56000830184620004cd565b92915050565b600081519050919050565b600081905092915050565b60006200051e82620004fb565b6200052a818562000506565b93506200053c818560208601620003a8565b80840191505092915050565b600062000556828462000511565b915081905092915050565b6000819050919050565b6000819050919050565b6200058a620005848262000561565b6200056b565b82525050565b60006200059e828462000575565b60208201915081905092915050565b6000819050919050565b620005c281620005ad565b8114620005ce57600080fd5b50565b600081519050620005e281620005b7565b92915050565b60006020828403121562000601576200060062000264565b5b60006200061184828501620005d1565b91505092915050565b60805160a05160c051610e8e6200065f600039600081816101fb015261051701526000818161028001526104d601526000818161025c01526102ed0152610e8e6000f3fe608060405234801561001057600080fd5b506004361061009e5760003560e01c80639f50b66d116100665780639f50b66d14610137578063a1a1c80414610155578063c07473f614610171578063ee033bce146101a1578063f2fde38b146101bd5761009e565b80631900ff27146100a357806370bb640f146100d3578063715018a6146100f15780638da5cb5b146100fb5780639be3783d14610119575b600080fd5b6100bd60048036038101906100b8919061093f565b6101d9565b6040516100ca9190610987565b60405180910390f35b6100db6101f9565b6040516100e891906109b1565b60405180910390f35b6100f961021d565b005b610103610231565b6040516101109190610a0d565b60405180910390f35b61012161025a565b60405161012e9190610a87565b60405180910390f35b61013f61027e565b60405161014c9190610ac3565b60405180910390f35b61016f600480360381019061016a919061093f565b6102a2565b005b61018b60048036038101906101869190610b0a565b6103d9565b60405161019891906109b1565b60405180910390f35b6101bb60048036038101906101b69190610b5e565b6103f1565b005b6101d760048036038101906101d29190610b0a565b610607565b005b60026020528060005260406000206000915054906101000a900460ff1681565b7f000000000000000000000000000000000000000000000000000000000000000081565b61022561068d565b61022f6000610714565b565b60008060009054906101000a900473ffffffffffffffffffffffffffffffffffffffff16905090565b7f000000000000000000000000000000000000000000000000000000000000000081565b7f000000000000000000000000000000000000000000000000000000000000000081565b600081116102e5576040517f08c379a00000000000000000000000000000000000000000000000000000000081526004016102dc90610c0f565b60405180910390fd5b6103323330837f000000000000000000000000000000000000000000000000000000000000000073ffffffffffffffffffffffffffffffffffffffff166107d8909392919063ffffffff16565b80600160003373ffffffffffffffffffffffffffffffffffffffff1673ffffffffffffffffffffffffffffffffffffffff16815260200190815260200160002060008282546103819190610c5e565b925050819055503373ffffffffffffffffffffffffffffffffffffffff167f943e3303d50e3770e60b0f7e87f5275b2d87dd5d5dfd94a1e9a61cda4d2c268a826040516103ce91906109b1565b60405180910390a250565b60016020528060005260406000206000915090505481565b6000600160003373ffffffffffffffffffffffffffffffffffffffff1673ffffffffffffffffffffffffffffffffffffffff1681526020019081526020016000205411610473576040517f08c379a000000000000000000000000000000000000000000000000000000000815260040161046a90610cde565b60405180910390fd5b6002600083815260200190815260200160002060009054906101000a900460ff16156104d4576040517f08c379a00000000000000000000000000000000000000000000000000000000081526004016104cb90610d4a565b60405180910390fd5b7f000000000000000000000000000000000000000000000000000000000000000073ffffffffffffffffffffffffffffffffffffffff16633bc778e384600180867f0000000000000000000000000000000000000000000000000000000000000000876040518763ffffffff1660e01b815260040161055896959493929190610dbf565b60006040518083038186803b15801561057057600080fd5b505afa158015610584573d6000803e3d6000fd5b5050505060016002600084815260200190815260200160002060006101000a81548160ff0219169083151502179055503373ffffffffffffffffffffffffffffffffffffffff167f4d99b957a2bc29a30ebd96a7be8e68fe50a3c701db28a91436490b7d53870ca4836040516105fa91906109b1565b60405180910390a2505050565b61060f61068d565b600073ffffffffffffffffffffffffffffffffffffffff168173ffffffffffffffffffffffffffffffffffffffff16036106815760006040517f1e4fbdf70000000000000000000000000000000000000000000000000000000081526004016106789190610a0d565b60405180910390fd5b61068a81610714565b50565b61069561085a565b73ffffffffffffffffffffffffffffffffffffffff166106b3610231565b73ffffffffffffffffffffffffffffffffffffffff1614610712576106d661085a565b6040517f118cdaa70000000000000000000000000000000000000000000000000000000081526004016107099190610a0d565b60405180910390fd5b565b60008060009054906101000a900473ffffffffffffffffffffffffffffffffffffffff169050816000806101000a81548173ffffffffffffffffffffffffffffffffffffffff021916908373ffffffffffffffffffffffffffffffffffffffff1602179055508173ffffffffffffffffffffffffffffffffffffffff168173ffffffffffffffffffffffffffffffffffffffff167f8be0079c531659141344cd1fd0a4f28419497f9722a3daafe3b4186f6b6457e060405160405180910390a35050565b610854848573ffffffffffffffffffffffffffffffffffffffff166323b872dd86868660405160240161080d93929190610e21565b604051602081830303815290604052915060e01b6020820180517bffffffffffffffffffffffffffffffffffffffffffffffffffffffff8381831617835250505050610862565b50505050565b600033905090565b600080602060008451602086016000885af180610885576040513d6000823e3d81fd5b3d9250600051915050600082146108a05760018114156108bc565b60008473ffffffffffffffffffffffffffffffffffffffff163b145b156108fe57836040517f5274afe70000000000000000000000000000000000000000000000000000000081526004016108f59190610a0d565b60405180910390fd5b50505050565b600080fd5b6000819050919050565b61091c81610909565b811461092757600080fd5b50565b60008135905061093981610913565b92915050565b60006020828403121561095557610954610904565b5b60006109638482850161092a565b91505092915050565b60008115159050919050565b6109818161096c565b82525050565b600060208201905061099c6000830184610978565b92915050565b6109ab81610909565b82525050565b60006020820190506109c660008301846109a2565b92915050565b600073ffffffffffffffffffffffffffffffffffffffff82169050919050565b60006109f7826109cc565b9050919050565b610a07816109ec565b82525050565b6000602082019050610a2260008301846109fe565b92915050565b6000819050919050565b6000610a4d610a48610a43846109cc565b610a28565b6109cc565b9050919050565b6000610a5f82610a32565b9050919050565b6000610a7182610a54565b9050919050565b610a8181610a66565b82525050565b6000602082019050610a9c6000830184610a78565b92915050565b6000610aad82610a54565b9050919050565b610abd81610aa2565b82525050565b6000602082019050610ad86000830184610ab4565b92915050565b610ae7816109ec565b8114610af257600080fd5b50565b600081359050610b0481610ade565b92915050565b600060208284031215610b2057610b1f610904565b5b6000610b2e84828501610af5565b91505092915050565b600080fd5b600081905082602060080282011115610b5857610b57610b37565b5b92915050565b60008060006101408486031215610b7857610b77610904565b5b6000610b868682870161092a565b9350506020610b978682870161092a565b9250506040610ba886828701610b3c565b9150509250925092565b600082825260208201905092915050565b7f416d6f756e74206d757374206265203e20300000000000000000000000000000600082015250565b6000610bf9601283610bb2565b9150610c0482610bc3565b602082019050919050565b60006020820190508181036000830152610c2881610bec565b9050919050565b7f4e487b7100000000000000000000000000000000000000000000000000000000600052601160045260246000fd5b6000610c6982610909565b9150610c7483610909565b9250828201905080821115610c8c57610c8b610c2f565b5b92915050565b7f4e6f20736b696e20696e207468652067616d6520285a61702066697273742900600082015250565b6000610cc8601f83610bb2565b9150610cd382610c92565b602082019050919050565b60006020820190508181036000830152610cf781610cbb565b9050919050565b7f416c726561647920766f74656400000000000000000000000000000000000000600082015250565b6000610d34600d83610bb2565b9150610d3f82610cfe565b602082019050919050565b60006020820190508181036000830152610d6381610d27565b9050919050565b6000819050919050565b6000610d8f610d8a610d8584610d6a565b610a28565b610909565b9050919050565b610d9f81610d74565b82525050565b82818337505050565b610dbb6101008383610da5565b5050565b60006101a082019050610dd560008301896109a2565b610de26020830188610d96565b610def6040830187610d96565b610dfc60608301866109a2565b610e0960808301856109a2565b610e1660a0830184610dae565b979650505050505050565b6000606082019050610e3660008301866109fe565b610e4360208301856109fe565b610e5060408301846109a2565b94935050505056fea2646970667358221220f0c20abcfbb598c80109787b71bf4f25bb3d5a0f9e78c7c63bfd49b108978d0964736f6c63430008140033",
  "linkReferences": {},
  "deployedLinkReferences": {}
}