{"contracts/HumanFiGovernance.sol":{"HumanFiGovernance":{"abi":[{"inputs":[{"internalType":"address","name":"_wldToken","type":"address"},{"internalType":"address","name":"_worldIdRouter","type":"address"},{"internalType":"string","name":"_appId","type":"string"}],"stateMutability":"nonpayable","type":"constructor"},{"inputs":[{"internalType":"address","name":"owner","type":"address"}],"name":"OwnableInvalidOwner","type":"error"},{"inputs":[{"internalType":"address","name":"account","type":"address"}],"name":"OwnableUnauthorizedAccount","type":"error"},{"inputs":[{"internalType":"address","name":"token","type":"address"}],"name":"SafeERC20FailedOperation","type":"error"},{"anonymous":false,"inputs":[{"indexed":true,"internalType":"address","name":"previousOwner","type":"address"},{"indexed":true,"internalType":"address","name":"newOwner","type":"address"}],"name":"OwnershipTransferred","type":"event"},{"anonymous":false,"inputs":[{"indexed":true,"internalType":"address","name":"user","type":"address"},{"indexed":false,"internalType":"uint256","name":"nullifierHash","type":"uint256"}],"name":"Voted","type":"event"},{"anonymous":false,"inputs":[{"indexed":true,"internalType":"address","name":"user","type":"address"},{"indexed":false,"internalType":"uint256","name":"amount","type":"uint256"}],"name":"ZapExecuted","type":"event"},{"inputs":[],"name":"externalNullifier","outputs":[{"internalType":"uint256","name":"","type":"uint256"}],"stateMutability":"view","type":"function"},{"inputs":[{"internalType":"uint256","name":"","type":"uint256"}],"name":"nullifierHasVoted","outputs":[{"internalType":"bool","name":"","type":"bool"}],"stateMutability":"view","type":"function"},{"inputs":[],"name":"owner","outputs":[{"internalType":"address","name":"","type":"address"}],"stateMutability":"view","type":"function"},{"inputs":[],"name":"renounceOwnership","outputs":[],"stateMutability":"nonpayable","type":"function"},{"inputs":[{"internalType":"address","name":"newOwner","type":"address"}],"name":"transferOwnership","outputs":[],"stateMutability":"nonpayable","type":"function"},{"inputs":[{"internalType":"uint256","name":"root","type":"uint256"},{"internalType":"uint256","name":"nullifierHash","type":"uint256"},{"internalType":"uint256[8]","name":"proof","type":"uint256[8]"}],"name":"voteWithWorldID","outputs":[],"stateMutability":"nonpayable","type":"function"},{"inputs":[{"internalType":"address","name":"","type":"address"}],"name":"votingPower","outputs":[{"internalType":"uint256","name":"","type":"uint256"}],"stateMutability":"view","type":"function"},{"inputs":[],"name":"wldToken","outputs":[{"internalType":"contract IERC20","name":"","type":"address"}],"stateMutability":"view","type":"function"},{"inputs":[],"name":"worldIdRouter","outputs":[{"internalType":"contract IWorldID","name":"","type":"address"}],"stateMutability":"view","type":"function"},{"inputs":[{"internalType":"uint256","name":"amount","type":"uint256"}],"name":"zap","outputs":[],"stateMutability":"nonpayable","type":"function"}],"evm":{"bytecode":{"linkReferences":{},"object":"60e06040523480156200001157600080fd5b50604051620014ed380380620014ed833981810160405281019062000037919062000452565b33600073ffffffffffffffffffffffffffffffffffffffff168173ffffffffffffffffffffffffffffffffffffffff1603620000ad5760006040517f1e4fbdf7000000000000000000000000000000000000000000000000000000008152600401620000a49190620004de565b60405180910390fd5b620000be816200019660201b60201c565b508273ffffffffffffffffffffffffffffffffffffffff1660808173ffffffffffffffffffffffffffffffffffffffff16815250508173ffffffffffffffffffffffffffffffffffffffff1660a08173ffffffffffffffffffffffffffffffffffffffff1681525050806040516020016200013a919062000548565b6040516020818303038152906040528051906020012060405160200162000162919062000590565b604051602081830303815290604052806020019051810190620001869190620005e8565b60c081815250505050506200061a565b60008060009054906101000a900473ffffffffffffffffffffffffffffffffffffffff169050816000806101000a81548173ffffffffffffffffffffffffffffffffffffffff021916908373ffffffffffffffffffffffffffffffffffffffff1602179055508173ffffffffffffffffffffffffffffffffffffffff168173ffffffffffffffffffffffffffffffffffffffff167f8be0079c531659141344cd1fd0a4f28419497f9722a3daafe3b4186f6b6457e060405160405180910390a35050565b6000604051905090565b600080fd5b600080fd5b600073ffffffffffffffffffffffffffffffffffffffff82169050919050565b60006200029b826200026e565b9050919050565b620002ad816200028e565b8114620002b957600080fd5b50565b600081519050620002cd81620002a2565b92915050565b600080fd5b600080fd5b6000601f19601f8301169050919050565b7f4e487b7100000000000000000000000000000000000000000000000000000000600052604160045260246000fd5b6200032882620002dd565b810181811067ffffffffffffffff821117156200034a5762000349620002ee565b5b80604052505050565b60006200035f6200025a565b90506200036d82826200031d565b919050565b600067ffffffffffffffff82111562000390576200038f620002ee565b5b6200039b82620002dd565b9050602081019050919050565b60005b83811015620003c8578082015181840152602081019050620003ab565b60008484015250505050565b6000620003eb620003e58462000372565b62000353565b9050828152602081018484840111156200040a5762000409620002d8565b5b62000417848285620003a8565b509392505050565b600082601f830112620004375762000436620002d3565b5b815162000449848260208601620003d4565b91505092915050565b6000806000606084860312156200046e576200046d62000264565b5b60006200047e86828701620002bc565b93505060206200049186828701620002bc565b925050604084015167ffffffffffffffff811115620004b557620004b462000269565b5b620004c3868287016200041f565b9150509250925092565b620004d8816200028e565b82525050565b6000602082019050620004f56000830184620004cd565b92915050565b600081519050919050565b600081905092915050565b60006200051e82620004fb565b6200052a818562000506565b93506200053c818560208601620003a8565b80840191505092915050565b600062000556828462000511565b915081905092915050565b6000819050919050565b6000819050919050565b6200058a620005848262000561565b6200056b565b82525050565b60006200059e828462000575565b60208201915081905092915050565b6000819050919050565b620005c281620005ad565b8114620005ce57600080fd5b50565b600081519050620005e281620005b7565b92915050565b60006020828403121562000601576200060062000264565b5b60006200061184828501620005d1565b91505092915050565b60805160a05160c051610e8e6200065f600039600081816101fb015261051701526000818161028001526104d601526000818161025c01526102ed0152610e8e6000f3fe608060405234801561001057600080fd5b506004361061009e5760003560e01c80639f50b66d116100665780639f50b66d14610137578063a1a1c80414610155578063c07473f614610171578063ee033bce146101a1578063f2fde38b146101bd5761009e565b80631900ff27146100a357806370bb640f146100d3578063715018a6146100f15780638da5cb5b146100fb5780639be3783d14610119575b600080fd5b6100bd60048036038101906100b8919061093f565b6101d9565b6040516100ca9190610987565b60405180910390f35b6100db6101f9565b6040516100e891906109b1565b60405180910390f35b6100f961021d565b005b610103610231565b6040516101109190610a0d565b60405180910390f35b61012161025a565b60405161012e9190610a87565b60405180910390f35b61013f61027e565b60405161014c9190610ac3565b60405180910390f35b61016f600480360381019061016a919061093f565b6102a2565b005b61018b60048036038101906101869190610b0a565b6103d9565b60405161019891906109b1565b60405180910390f35b6101bb60048036038101906101b69190610b5e565b6103f1565b005b6101d760048036038101906101d29190610b0a565b610607565b005b60026020528060005260406000206000915054906101000a900460ff1681565b7f000000000000000000000000000000000000000000000000000000000000000081565b61022561068d565b61022f6000610714565b565b60008060009054906101000a900473ffffffffffffffffffffffffffffffffffffffff16905090565b7f000000000000000000000000000000000000000000000000000000000000000081565b7f000000000000000000000000000000000000000000000000000000000000000081565b600081116102e5576040517f08c379a00000000000000000000000000000000000000000000000000000000081526004016102dc90610c0f565b60405180910390fd5b6103323330837f000000000000000000000000000000000000000000000000000000000000000073ffffffffffffffffffffffffffffffffffffffff166107d8909392919063ffffffff16565b80600160003373ffffffffffffffffffffffffffffffffffffffff1673ffffffffffffffffffffffffffffffffffffffff16815260200190815260200160002060008282546103819190610c5e565b925050819055503373ffffffffffffffffffffffffffffffffffffffff167f943e3303d50e3770e60b0f7e87f5275b2d87dd5d5dfd94a1e9a61cda4d2c268a826040516103ce91906109b1565b60405180910390a250565b60016020528060005260406000206000915090505481565b6000600160003373ffffffffffffffffffffffffffffffffffffffff1673ffffffffffffffffffffffffffffffffffffffff1681526020019081526020016000205411610473576040517f08c379a000000000000000000000000000000000000000000000000000000000815260040161046a90610cde565b60405180910390fd5b6002600083815260200190815260200160002060009054906101000a900460ff16156104d4576040517f08c379a00000000000000000000000000000000000000000000000000000000081526004016104cb90610d4a565b60405180910390fd5b7f000000000000000000000000000000000000000000000000000000000000000073ffffffffffffffffffffffffffffffffffffffff16633bc778e384600180867f0000000000000000000000000000000000000000000000000000000000000000876040518763ffffffff1660e01b815260040161055896959493929190610dbf565b60006040518083038186803b15801561057057600080fd5b505afa158015610584573d6000803e3d6000fd5b5050505060016002600084815260200190815260200160002060006101000a81548160ff0219169083151502179055503373ffffffffffffffffffffffffffffffffffffffff167f4d99b957a2bc29a30ebd96a7be8e68fe50a3c701db28a91436490b7d53870ca4836040516105fa91906109b1565b60405180910390a2505050565b61060f61068d565b600073ffffffffffffffffffffffffffffffffffffffff168173ffffffffffffffffffffffffffffffffffffffff16036106815760006040517f1e4fbdf70000000000000000000000000000000000000000000000000000000081526004016106789190610a0d565b60405180910390fd5b61068a81610714565b50565b61069561085a565b73ffffffffffffffffffffffffffffffffffffffff166106b3610231565b73ffffffffffffffffffffffffffffffffffffffff1614610712576106d661085a565b6040517f118cdaa70000000000000000000000000000000000000000000000000000000081526004016107099190610a0d565b60405180910390fd5b565b60008060009054906101000a900473ffffffffffffffffffffffffffffffffffffffff169050816000806101000a81548173ffffffffffffffffffffffffffffffffffffffff021916908373ffffffffffffffffffffffffffffffffffffffff1602179055508173ffffffffffffffffffffffffffffffffffffffff168173ffffffffffffffffffffffffffffffffffffffff167f8be0079c531659141344cd1fd0a4f28419497f9722a3daafe3b4186f6b6457e060405160405180910390a35050565b610854848573ffffffffffffffffffffffffffffffffffffffff166323b872dd86868660405160240161080d93929190610e21565b604051602081830303815290604052915060e01b6020820180517bffffffffffffffffffffffffffffffffffffffffffffffffffffffff8381831617835250505050610862565b50505050565b600033905090565b600080602060008451602086016000885af180610885576040513d6000823e3d81fd5b3d9250600051915050600082146108a05760018114156108bc565b60008473ffffffffffffffffffffffffffffffffffffffff163b145b156108fe57836040517f5274afe70000000000000000000000000000000000000000000000000000000081526004016108f59190610a0d565b60405180910390fd5b50505050565b600080fd5b6000819050919050565b61091c81610909565b811461092757600080fd5b50565b60008135905061093981610913565b92915050565b60006020828403121561095557610954610904565b5b60006109638482850161092a565b91505092915050565b60008115159050919050565b6109818161096c565b82525050565b600060208201905061099c6000830184610978565b92915050565b6109ab81610909565b82525050565b60006020820190506109c660008301846109a2565b92915050565b600073ffffffffffffffffffffffffffffffffffffffff82169050919050565b60006109f7826109cc565b9050919050565b610a07816109ec565b82525050565b6000602082019050610a2260008301846109fe565b92915050565b6000819050919050565b6000610a4d610a48610a43846109cc565b610a28565b6109cc565b9050919050565b6000610a5f82610a32565b9050919050565b6000610a7182610a54565b9050919050565b610a8181610a66565b82525050565b6000602082019050610a9c6000830184610a78565b92915050565b6000610aad82610a54565b9050919050565b610abd81610aa2565b82525050565b6000602082019050610ad86000830184610ab4565b92915050565b610ae7816109ec565b8114610af257600080fd5b50565b600081359050610b0481610ade565b92915050565b600060208284031215610b2057610b1f610904565b5b6000610b2e84828501610af5565b91505092915050565b600080fd5b600081905082602060080282011115610b5857610b57610b37565b5b92915050565b60008060006101408486031215610b7857610b77610904565b5b6000610b868682870161092a565b9350506020610b978682870161092a565b9250506040610ba886828701610b3c565b9150509250925092565b600082825260208201905092915050565b7f416d6f756e74206d757374206265203e20300000000000000000000000000000600082015250565b6000610bf9601283610bb2565b9150610c0482610bc3565b602082019050919050565b60006020820190508181036000830152610c2881610bec565b9050919050565b7f4e487b7100000000000000000000000000000000000000000000000000000000600052601160045260246000fd5b6000610c6982610909565b9150610c7483610909565b9250828201905080821115610c8c57610c8b610c2f565b5b92915050565b7f4e6f20736b696e20696e207468652067616d6520285a61702066697273742900600082015250565b6000610cc8601f83610bb2565b9150610cd382610c92565b602082019050919050565b60006020820190508181036000830152610cf781610cbb565b9050919050565b7f416c726561647920766f74656400000000000000000000000000000000000000600082015250565b6000610d34600d83610bb2565b9150610d3f82610cfe565b602082019050919050565b60006020820190508181036000830152610d6381610d27565b9050919050565b6000819050919050565b6000610d8f610d8a610d8584610d6a565b610a28565b610909565b9050919050565b610d9f81610d74565b82525050565b82818337505050565b610dbb6101008383610da5565b5050565b60006101a082019050610dd560008301896109a2565b610de26020830188610d96565b610def6040830187610d96565b610dfc60608301866109a2565b610e0960808301856109a2565b610e1660a0830184610dae565b979650505050505050565b6000606082019050610e3660008301866109fe565b610e4360208301856109fe565b610e5060408301846109a2565b94935050505056fea2646970667358221220f0c20abcfbb598c80109787b71bf4f25bb3d5a0f9e78c7c63bfd49b108978d0964736f6c63430008140033","opcodes":"PUSH1 0xE0 PUSH1 0x40 MSTORE CALLVALUE DUP1 ISZERO PUSH3 0x11 JUMPI PUSH1 0x0 DUP1 REVERT JUMPDEST POP PUSH1 0x40 MLOAD PUSH3 0x14ED CODESIZE SUB DUP1 PUSH3 0x14ED DUP4 CODECOPY DUP2 DUP2 ADD PUSH1 0x40 MSTORE DUP2 ADD SWAP1 PUSH3 0x37 SWAP2 SWAP1 PUSH3 0x452 JUMP JUMPDEST CALLER PUSH1 0x0 PUSH20 0xFFFFFFFFFFFFFFFFFFFFFFFFFFFFFFFFFFFFFFFF AND DUP2 PUSH20 0xFFFFFFFFFFFFFFFFFFFFFFFFFFFFFFFFFFFFFFFF AND SUB PUSH3 0xAD JUMPI PUSH1 0x0 PUSH1 0x40 MLOAD PUSH32 0x1E4FBDF700000000000000000000000000000000000000000000000000000000 DUP2 MSTORE PUSH1 0x4 ADD PUSH3 0xA4 SWAP2 SWAP1 PUSH3 0x4DE JUMP JUMPDEST PUSH1 0x40 MLOAD DUP1 SWAP2 SUB SWAP1 REVERT JUMPDEST PUSH3 0xBE DUP2 PUSH3 0x196 PUSH1 0x20 SHL PUSH1 0x20 SHR JUMP JUMPDEST POP DUP3 PUSH20 0xFFFFFFFFFFFFFFFFFFFFFFFFFFFFFFFFFFFFFFFF AND PUSH1 0x80 DUP2 PUSH20 0xFFFFFFFFFFFFFFFFFFFFFFFFFFFFFFFFFFFFFFFF AND DUP2 MSTORE POP POP DUP2 PUSH20 0xFFFFFFFFFFFFFFFFFFFFFFFFFFFFFFFFFFFFFFFF AND PUSH1 0xA0 DUP2 PUSH20 0xFFFFFFFFFFFFFFFFFFFFFFFFFFFFFFFFFFFFFFFF AND DUP2 MSTORE POP POP DUP1 PUSH1 0x40 MLOAD PUSH1 0x20 ADD PUSH3 0x13A SWAP2 SWAP1 PUSH3 0x548 JUMP JUMPDEST PUSH1 0x40 MLOAD PUSH1 0x20 DUP2 DUP4 SUB SUB DUP2 MSTORE SWAP1 PUSH1 0x40 MSTORE DUP1 MLOAD SWAP1 PUSH1 0x20 ADD KECCAK256 PUSH1 0x40 MLOAD PUSH1 0x20 ADD PUSH3 0x162 SWAP2 SWAP1 PUSH3 0x590 JUMP JUMPDEST PUSH1 0x40 MLOAD PUSH1 0x20 DUP2 DUP4 SUB SUB DUP2 MSTORE SWAP1 PUSH1 0x40 MSTORE DUP1 PUSH1 0x20 ADD SWAP1 MLOAD DUP2 ADD SWAP1 PUSH3 0x186 SWAP2 SWAP1 PUSH3 0x5E8 JUMP JUMPDEST PUSH1 0xC0 DUP2 DUP2 MSTORE POP POP POP POP POP PUSH3 0x61A JUMP JUMPDEST PUSH1 0x0 DUP1 PUSH1 0x0 SWAP1 SLOAD SWAP1 PUSH2 0x100 EXP SWAP1 DIV PUSH20 0xFFFFFFFFFFFFFFFFFFFFFFFFFFFFFFFFFFFFFFFF AND SWAP1 POP DUP2 PUSH1 0x0 DUP1 PUSH2 0x100 EXP DUP2 SLOAD DUP2 PUSH20 0xFFFFFFFFFFFFFFFFFFFFFFFFFFFFFFFFFFFFFFFF MUL NOT AND SWAP1 DUP4 PUSH20 0xFFFFFFFFFFFFFFFFFFFFFFFFFFFFFFFFFFFFFFFF AND MUL OR SWAP1 SSTORE POP DUP2 PUSH20 0xFFFFFFFFFFFFFFFFFFFFFFFFFFFFFFFFFFFFFFFF AND DUP2 PUSH20 0xFFFFFFFFFFFFFFFFFFFFFFFFFFFFFFFFFFFFFFFF AND PUSH32 0x8BE0079C531659141344CD1FD0A4F28419497F9722A3DAAFE3B4186F6B6457E0 PUSH1 0x40 MLOAD PUSH1 0x40 MLOAD DUP1 SWAP2 SUB SWAP1 LOG3 POP POP JUMP JUMPDEST PUSH1 0x0 PUSH1 0x40 MLOAD SWAP1 POP SWAP1 JUMP JUMPDEST PUSH1 0x0 DUP1 REVERT JUMPDEST PUSH1 0x0 DUP1 REVERT JUMPDEST PUSH1 0x0 PUSH20 0xFFFFFFFFFFFFFFFFFFFFFFFFFFFFFFFFFFFFFFFF DUP3 AND SWAP1 POP SWAP2 SWAP1 POP JUMP JUMPDEST PUSH1 0x0 PUSH3 0x29B DUP3 PUSH3 0x26E JUMP JUMPDEST SWAP1 POP SWAP2 SWAP1 POP JUMP JUMPDEST PUSH3 0x2AD DUP2 PUSH3 0x28E JUMP JUMPDEST DUP2 EQ PUSH3 0x2B9 JUMPI PUSH1 0x0 DUP1 REVERT JUMPDEST POP JUMP JUMPDEST PUSH1 0x0 DUP2 MLOAD SWAP1 POP PUSH3 0x2CD DUP2 PUSH3 0x2A2 JUMP JUMPDEST SWAP3 SWAP2 POP POP JUMP JUMPDEST PUSH1 0x0 DUP1 REVERT JUMPDEST PUSH1 0x0 DUP1 REVERT JUMPDEST PUSH1 0x0 PUSH1 0x1F NOT PUSH1 0x1F DUP4 ADD AND SWAP1 POP SWAP2 SWAP1 POP JUMP JUMPDEST PUSH32 0x4E487B7100000000000000000000000000000000000000000000000000000000 PUSH1 0x0 MSTORE PUSH1 0x41 PUSH1 0x4 MSTORE PUSH1 0x24 PUSH1 0x0 REVERT JUMPDEST PUSH3 0x328 DUP3 PUSH3 0x2DD JUMP JUMPDEST DUP2 ADD DUP2 DUP2 LT PUSH8 0xFFFFFFFFFFFFFFFF DUP3 GT OR ISZERO PUSH3 0x34A JUMPI PUSH3 0x349 PUSH3 0x2EE JUMP JUMPDEST JUMPDEST DUP1 PUSH1 0x40 MSTORE POP POP POP JUMP JUMPDEST PUSH1 0x0 PUSH3 0x35F PUSH3 0x25A JUMP JUMPDEST SWAP1 POP PUSH3 0x36D DUP3 DUP3 PUSH3 0x31D JUMP JUMPDEST SWAP2 SWAP1 POP JUMP JUMPDEST PUSH1 0x0 PUSH8 0xFFFFFFFFFFFFFFFF DUP3 GT ISZERO PUSH3 0x390 JUMPI PUSH3 0x38F PUSH3 0x2EE JUMP JUMPDEST JUMPDEST PUSH3 0x39B DUP3 PUSH3 0x2DD JUMP JUMPDEST SWAP1 POP PUSH1 0x20 DUP2 ADD SWAP1 POP SWAP2 SWAP1 POP JUMP JUMPDEST PUSH1 0x0 JUMPDEST DUP4 DUP2 LT ISZERO PUSH3 0x3C8 JUMPI DUP1 DUP3 ADD MLOAD DUP2 DUP5 ADD MSTORE PUSH1 0x20 DUP2 ADD SWAP1 POP PUSH3 0x3AB JUMP JUMPDEST PUSH1 0x0 DUP5 DUP5 ADD MSTORE POP POP POP POP JUMP JUMPDEST PUSH1 0x0 PUSH3 0x3EB PUSH3 0x3E5 DUP5 PUSH3 0x372 JUMP JUMPDEST PUSH3 0x353 JUMP JUMPDEST SWAP1 POP DUP3 DUP2 MSTORE PUSH1 0x20 DUP2 ADD DUP5 DUP5 DUP5 ADD GT ISZERO PUSH3 0x40A JUMPI PUSH3 0x409 PUSH3 0x2D8 JUMP JUMPDEST JUMPDEST PUSH3 0x417 DUP5 DUP3 DUP6 PUSH3 0x3A8 JUMP JUMPDEST POP SWAP4 SWAP3 POP POP POP JUMP JUMPDEST PUSH1 0x0 DUP3 PUSH1 0x1F DUP4 ADD SLT PUSH3 0x437 JUMPI PUSH3 0x436 PUSH3 0x2D3 JUMP JUMPDEST JUMPDEST DUP2 MLOAD PUSH3 0x449 DUP5 DUP3 PUSH1 0x20 DUP7 ADD PUSH3 0x3D4 JUMP JUMPDEST SWAP2 POP POP SWAP3 SWAP2 POP POP JUMP JUMPDEST PUSH1 0x0 DUP1 PUSH1 0x0 PUSH1 0x60 DUP5 DUP7 SUB SLT ISZERO PUSH3 0x46E JUMPI PUSH3 0x46D PUSH3 0x264 JUMP JUMPDEST JUMPDEST PUSH1 0x0 PUSH3 0x47E DUP7 DUP3 DUP8 ADD PUSH3 0x2BC JUMP JUMPDEST SWAP4 POP POP PUSH1 0x20 PUSH3 0x491 DUP7 DUP3 DUP8 ADD PUSH3 0x2BC JUMP JUMPDEST SWAP3 POP POP PUSH1 0x40 DUP5 ADD MLOAD PUSH8 0xFFFFFFFFFFFFFFFF DUP2 GT ISZERO PUSH3 0x4B5 JUMPI PUSH3 0x4B4 PUSH3 0x269 JUMP JUMPDEST JUMPDEST PUSH3 0x4C3 DUP7 DUP3 DUP8 ADD PUSH3 0x41F JUMP JUMPDEST SWAP2 POP POP SWAP3 POP SWAP3 POP SWAP3 JUMP JUMPDEST PUSH3 0x4D8 DUP2 PUSH3 0x28E JUMP JUMPDEST DUP3 MSTORE POP POP JUMP JUMPDEST PUSH1 0x0 PUSH1 0x20 DUP3 ADD SWAP1 POP PUSH3 0x4F5 PUSH1 0x0 DUP4 ADD DUP5 PUSH3 0x4CD JUMP JUMPDEST SWAP3 SWAP2 POP POP JUMP JUMPDEST PUSH1 0x0 DUP2 MLOAD SWAP1 POP SWAP2 SWAP1 POP JUMP JUMPDEST PUSH1 0x0 DUP2 SWAP1 POP SWAP3 SWAP2 POP POP JUMP JUMPDEST PUSH1 0x0 PUSH3 0x51E DUP3 PUSH3 0x4FB JUMP JUMPDEST PUSH3 0x52A DUP2 DUP6 PUSH3 0x506 JUMP JUMPDEST SWAP4 POP PUSH3 0x53C DUP2 DUP6 PUSH1 0x20 DUP7 ADD PUSH3 0x3A8 JUMP JUMPDEST DUP1 DUP5 ADD SWAP2 POP POP SWAP3 SWAP2 POP POP JUMP JUMPDEST PUSH1 0x0 PUSH3 0x556 DUP3 DUP5 PUSH3 0x511 JUMP JUMPDEST SWAP2 POP DUP2 SWAP1 POP SWAP3 SWAP2 POP POP JUMP JUMPDEST PUSH1 0x0 DUP2 SWAP1 POP SWAP2 SWAP1 POP JUMP JUMPDEST PUSH1 0x0 DUP2 SWAP1 POP SWAP2 SWAP1 POP JUMP JUMPDEST PUSH3 0x58A PUSH3 0x584 DUP3 PUSH3 0x561 JUMP JUMPDEST PUSH3 0x56B JUMP JUMPDEST DUP3 MSTORE POP POP JUMP JUMPDEST PUSH1 0x0 PUSH3 0x59E DUP3 DUP5 PUSH3 0x575 JUMP JUMPDEST PUSH1 0x20 DUP3 ADD SWAP2 POP DUP2 SWAP1 POP SWAP3 SWAP2 POP POP JUMP JUMPDEST PUSH1 0x0 DUP2 SWAP1 POP SWAP2 SWAP1 POP JUMP JUMPDEST PUSH3 0x5C2 DUP2 PUSH3 0x5AD JUMP JUMPDEST DUP2 EQ PUSH3 0x5CE JUMPI PUSH1 0x0 DUP1 REVERT JUMPDEST POP JUMP JUMPDEST PUSH1 0x0 DUP2 MLOAD SWAP1 POP PUSH3 0x5E2 DUP2 PUSH3 0x5B7 JUMP JUMPDEST SWAP3 SWAP2 POP POP JUMP JUMPDEST PUSH1 0x0 PUSH1 0x20 DUP3 DUP5 SUB SLT ISZERO PUSH3 0x601 JUMPI PUSH3 0x600 PUSH3 0x264 JUMP JUMPDEST JUMPDEST PUSH1 0x0 PUSH3 0x611 DUP5 DUP3 DUP6 ADD PUSH3 0x5D1 JUMP JUMPDEST SWAP2 POP POP SWAP3 SWAP2 POP POP JUMP JUMPDEST PUSH1 0x80 MLOAD PUSH1 0xA0 MLOAD PUSH1 0xC0 MLOAD PUSH2 0xE8E PUSH3 0x65F PUSH1 0x0 CODECOPY PUSH1 0x0 DUP2 DUP2 PUSH2 0x1FB ADD MSTORE PUSH2 0x517 ADD MSTORE PUSH1 0x0 DUP2 DUP2 PUSH2 0x280 ADD MSTORE PUSH2 0x4D6 ADD MSTORE PUSH1 0x0 DUP2 DUP2 PUSH2 0x25C ADD MSTORE PUSH2 0x2ED ADD MSTORE PUSH2 0xE8E PUSH1 0x0 RETURN INVALID PUSH1 0x80 PUSH1 0x40 MSTORE CALLVALUE DUP1 ISZERO PUSH2 0x10 JUMPI PUSH1 0x0 DUP1 REVERT JUMPDEST POP PUSH1 0x4 CALLDATASIZE LT PUSH2 0x9E JUMPI PUSH1 0x0 CALLDATALOAD PUSH1 0xE0 SHR DUP1 PUSH4 0x9F50B66D GT PUSH2 0x66 JUMPI DUP1 PUSH4 0x9F50B66D EQ PUSH2 0x137 JUMPI DUP1 PUSH4 0xA1A1C804 EQ PUSH2 0x155 JUMPI DUP1 PUSH4 0xC07473F6 EQ PUSH2 0x171 JUMPI DUP1 PUSH4 0xEE033BCE EQ PUSH2 0x1A1 JUMPI DUP1 PUSH4 0xF2FDE38B EQ PUSH2 0x1BD JUMPI PUSH2 0x9E JUMP JUMPDEST DUP1 PUSH4 0x1900FF27 EQ PUSH2 0xA3 JUMPI DUP1 PUSH4 0x70BB640F EQ PUSH2 0xD3 JUMPI DUP1 PUSH4 0x715018A6 EQ PUSH2 0xF1 JUMPI DUP1 PUSH4 0x8DA5CB5B EQ PUSH2 0xFB JUMPI DUP1 PUSH4 0x9BE3783D EQ PUSH2 0x119 JUMPI JUMPDEST PUSH1 0x0 DUP1 REVERT JUMPDEST PUSH2 0xBD PUSH1 0x4 DUP1 CALLDATASIZE SUB DUP2 ADD SWAP1 PUSH2 0xB8 SWAP2 SWAP1 PUSH2 0x93F JUMP JUMPDEST PUSH2 0x1D9 JUMP JUMPDEST PUSH1 0x40 MLOAD PUSH2 0xCA SWAP2 SWAP1 PUSH2 0x987 JUMP JUMPDEST PUSH1 0x40 MLOAD DUP1 SWAP2 SUB SWAP1 RETURN JUMPDEST PUSH2 0xDB PUSH2 0x1F9 JUMP JUMPDEST PUSH1 0x40 MLOAD PUSH2 0xE8 SWAP2 SWAP1 PUSH2 0x9B1 JUMP JUMPDEST PUSH1 0x40 MLOAD DUP1 SWAP2 SUB SWAP1 RETURN JUMPDEST PUSH2 0xF9 PUSH2 0x21D JUMP JUMPDEST STOP JUMPDEST PUSH2 0x103 PUSH2 0x231 JUMP JUMPDEST PUSH1 0x40 MLOAD PUSH2 0x110 SWAP2 SWAP1 PUSH2 0xA0D JUMP JUMPDEST PUSH1 0x40 MLOAD DUP1 SWAP2 SUB SWAP1 RETURN JUMPDEST PUSH2 0x121 PUSH2 0x25A JUMP JUMPDEST PUSH1 0x40 MLOAD PUSH2 0x12E SWAP2 SWAP1 PUSH2 0xA87 JUMP JUMPDEST PUSH1 0x40 MLOAD DUP1 SWAP2 SUB SWAP1 RETURN JUMPDEST PUSH2 0x13F PUSH2 0x27E JUMP JUMPDEST PUSH1 0x40 MLOAD PUSH2 0x14C SWAP2 SWAP1 PUSH2 0xAC3 JUMP JUMPDEST PUSH1 0x40 MLOAD DUP1 SWAP2 SUB SWAP1 RETURN JUMPDEST PUSH2 0x16F PUSH1 0x4 DUP1 CALLDATASIZE SUB DUP2 ADD SWAP1 PUSH2 0x16A SWAP2 SWAP1 PUSH2 0x93F JUMP JUMPDEST PUSH2 0x2A2 JUMP JUMPDEST STOP JUMPDEST PUSH2 0x18B PUSH1 0x4 DUP1 CALLDATASIZE SUB DUP2 ADD SWAP1 PUSH2 0x186 SWAP2 SWAP1 PUSH2 0xB0A JUMP JUMPDEST PUSH2 0x3D9 JUMP JUMPDEST PUSH1 0x40 MLOAD PUSH2 0x198 SWAP2 SWAP1 PUSH2 0x9B1 JUMP JUMPDEST PUSH1 0x40 MLOAD DUP1 SWAP2 SUB SWAP1 RETURN JUMPDEST PUSH2 0x1BB PUSH1 0x4 DUP1 CALLDATASIZE SUB DUP2 ADD SWAP1 PUSH2 0x1B6 SWAP2 SWAP1 PUSH2 0xB5E JUMP JUMPDEST PUSH2 0x3F1 JUMP JUMPDEST STOP JUMPDEST PUSH2 0x1D7 PUSH1 0x4 DUP1 CALLDATASIZE SUB DUP2 ADD SWAP1 PUSH2 0x1D2 SWAP2 SWAP1 PUSH2 0xB0A JUMP JUMPDEST PUSH2 0x607 JUMP JUMPDEST STOP JUMPDEST PUSH1 0x2 PUSH1 0x20 MSTORE DUP1 PUSH1 0x0 MSTORE PUSH1 0x40 PUSH1 0x0 KECCAK256 PUSH1 0x0 SWAP2 POP SLOAD SWAP1 PUSH2 0x100 EXP SWAP1 DIV PUSH1 0xFF AND DUP2 JUMP JUMPDEST PUSH32 0x0 DUP2 JUMP JUMPDEST PUSH2 0x225 PUSH2 0x68D JUMP JUMPDEST PUSH2 0x22F PUSH1 0x0 PUSH2 0x714 JUMP JUMPDEST JUMP JUMPDEST PUSH1 0x0 DUP1 PUSH1 0x0 SWAP1 SLOAD SWAP1 PUSH2 0x100 EXP SWAP1 DIV PUSH20 0xFFFFFFFFFFFFFFFFFFFFFFFFFFFFFFFFFFFFFFFF AND SWAP1 POP SWAP1 JUMP JUMPDEST PUSH32 0x0 DUP2 JUMP JUMPDEST PUSH32 0x0 DUP2 JUMP JUMPDEST PUSH1 0x0 DUP2 GT PUSH2 0x2E5 JUMPI PUSH1 0x40 MLOAD PUSH32 0x8C379A000000000000000000000000000000000000000000000000000000000 DUP2 MSTORE PUSH1 0x4 ADD PUSH2 0x2DC SWAP1 PUSH2 0xC0F JUMP JUMPDEST PUSH1 0x40 MLOAD DUP1 SWAP2 SUB SWAP1 REVERT JUMPDEST PUSH2 0x332 CALLER ADDRESS DUP4 PUSH32 0x0 PUSH20 0xFFFFFFFFFFFFFFFFFFFFFFFFFFFFFFFFFFFFFFFF AND PUSH2 0x7D8 SWAP1 SWAP4 SWAP3 SWAP2 SWAP1 PUSH4 0xFFFFFFFF AND JUMP JUMPDEST DUP1 PUSH1 0x1 PUSH1 0x0 CALLER PUSH20 0xFFFFFFFFFFFFFFFFFFFFFFFFFFFFFFFFFFFFFFFF AND PUSH20 0xFFFFFFFFFFFFFFFFFFFFFFFFFFFFFFFFFFFFFFFF AND DUP2 MSTORE PUSH1 0x20 ADD SWAP1 DUP2 MSTORE PUSH1 0x20 ADD PUSH1 0x0 KECCAK256 PUSH1 0x0 DUP3 DUP3 SLOAD PUSH2 0x381 SWAP2 SWAP1 PUSH2 0xC5E JUMP JUMPDEST SWAP3 POP POP DUP2 SWAP1 SSTORE POP CALLER PUSH20 0xFFFFFFFFFFFFFFFFFFFFFFFFFFFFFFFFFFFFFFFF AND PUSH32 0x943E3303D50E3770E60B0F7E87F5275B2D87DD5D5DFD94A1E9A61CDA4D2C268A DUP3 PUSH1 0x40 MLOAD PUSH2 0x3CE SWAP2 SWAP1 PUSH2 0x9B1 JUMP JUMPDEST PUSH1 0x40 MLOAD DUP1 SWAP2 SUB SWAP1 LOG2 POP JUMP JUMPDEST PUSH1 0x1 PUSH1 0x20 MSTORE DUP1 PUSH1 0x0 MSTORE PUSH1 0x40 PUSH1 0x0 KECCAK256 PUSH1 0x0 SWAP2 POP SWAP1 POP SLOAD DUP2 JUMP JUMPDEST PUSH1 0x0 PUSH1 0x1 PUSH1 0x0 CALLER PUSH20 0xFFFFFFFFFFFFFFFFFFFFFFFFFFFFFFFFFFFFFFFF AND PUSH20 0xFFFFFFFFFFFFFFFFFFFFFFFFFFFFFFFFFFFFFFFF AND DUP2 MSTORE PUSH1 0x20 ADD SWAP1 DUP2 MSTORE PUSH1 0x20 ADD PUSH1 0x0 KECCAK256 SLOAD GT PUSH2 0x473 JUMPI PUSH1 0x40 MLOAD PUSH32 0x8C379A000000000000000000000000000000000000000000000000000000000 DUP2 MSTORE PUSH1 0x4 ADD PUSH2 0x46A SWAP1 PUSH2 0xCDE JUMP JUMPDEST PUSH1 0x40 MLOAD DUP1 SWAP2 SUB SWAP1 REVERT JUMPDEST PUSH1 0x2 PUSH1 0x0 DUP4 DUP2 MSTORE PUSH1 0x20 ADD SWAP1 DUP2 MSTORE PUSH1 0x20 ADD PUSH1 0x0 KECCAK256 PUSH1 0x0 SWAP1 SLOAD SWAP1 PUSH2 0x100 EXP SWAP1 DIV PUSH1 0xFF AND ISZERO PUSH2 0x4D4 JUMPI PUSH1 0x40 MLOAD PUSH32 0x8C379A000000000000000000000000000000000000000000000000000000000 DUP2 MSTORE PUSH1 0x4 ADD PUSH2 0x4CB SWAP1 PUSH2 0xD4A JUMP JUMPDEST PUSH1 0x40 MLOAD DUP1 SWAP2 SUB SWAP1 REVERT JUMPDEST PUSH32 0x0 PUSH20 0xFFFFFFFFFFFFFFFFFFFFFFFFFFFFFFFFFFFFFFFF AND PUSH4 0x3BC778E3 DUP5 PUSH1 0x1 DUP1 DUP7 PUSH32 0x0 DUP8 PUSH1 0x40 MLOAD DUP8 PUSH4 0xFFFFFFFF AND PUSH1 0xE0 SHL DUP2 MSTORE PUSH1 0x4 ADD PUSH2 0x558 SWAP7 SWAP6 SWAP5 SWAP4 SWAP3 SWAP2 SWAP1 PUSH2 0xDBF JUMP JUMPDEST PUSH1 0x0 PUSH1 0x40 MLOAD DUP1 DUP4 SUB DUP2 DUP7 DUP1 EXTCODESIZE ISZERO DUP1 ISZERO PUSH2 0x570 JUMPI PUSH1 0x0 DUP1 REVERT JUMPDEST POP GAS STATICCALL ISZERO DUP1 ISZERO PUSH2 0x584 JUMPI RETURNDATASIZE PUSH1 0x0 DUP1 RETURNDATACOPY RETURNDATASIZE PUSH1 0x0 REVERT JUMPDEST POP POP POP POP PUSH1 0x1 PUSH1 0x2 PUSH1 0x0 DUP5 DUP2 MSTORE PUSH1 0x20 ADD SWAP1 DUP2 MSTORE PUSH1 0x20 ADD PUSH1 0x0 KECCAK256 PUSH1 0x0 PUSH2 0x100 EXP DUP2 SLOAD DUP2 PUSH1 0xFF MUL NOT AND SWAP1 DUP4 ISZERO ISZERO MUL OR SWAP1 SSTORE POP CALLER PUSH20 0xFFFFFFFFFFFFFFFFFFFFFFFFFFFFFFFFFFFFFFFF AND PUSH32 0x4D99B957A2BC29A30EBD96A7BE8E68FE50A3C701DB28A91436490B7D53870CA4 DUP4 PUSH1 0x40 MLOAD PUSH2 0x5FA SWAP2 SWAP1 PUSH2 0x9B1 JUMP JUMPDEST PUSH1 0x40 MLOAD DUP1 SWAP2 SUB SWAP1 LOG2 POP POP POP JUMP JUMPDEST PUSH2 0x60F PUSH2 0x68D JUMP JUMPDEST PUSH1 0x0 PUSH20 0xFFFFFFFFFFFFFFFFFFFFFFFFFFFFFFFFFFFFFFFF AND DUP2 PUSH20 0xFFFFFFFFFFFFFFFFFFFFFFFFFFFFFFFFFFFFFFFF AND SUB PUSH2 0x681 JUMPI PUSH1 0x0 PUSH1 0x40 MLOAD PUSH32 0x1E4FBDF700000000000000000000000000000000000000000000000000000000 DUP2 MSTORE PUSH1 0x4 ADD PUSH2 0x678 SWAP2 SWAP1 PUSH2 0xA0D JUMP JUMPDEST PUSH1 0x40 MLOAD DUP1 SWAP2 SUB SWAP1 REVERT JUMPDEST PUSH2 0x68A DUP2 PUSH2 0x714 JUMP JUMPDEST POP JUMP JUMPDEST PUSH2 0x695 PUSH2 0x85A JUMP JUMPDEST PUSH20 0xFFFFFFFFFFFFFFFFFFFFFFFFFFFFFFFFFFFFFFFF AND PUSH2 0x6B3 PUSH2 0x231 JUMP JUMPDEST PUSH20 0xFFFFFFFFFFFFFFFFFFFFFFFFFFFFFFFFFFFFFFFF AND EQ PUSH2 0x712 JUMPI PUSH2 0x6D6 PUSH2 0x85A JUMP JUMPDEST PUSH1 0x40 MLOAD PUSH32 0x118CDAA700000000000000000000000000000000000000000000000000000000 DUP2 MSTORE PUSH1 0x4 ADD PUSH2 0x709 SWAP2 SWAP1 PUSH2 0xA0D JUMP JUMPDEST PUSH1 0x40 MLOAD DUP1 SWAP2 SUB SWAP1 REVERT JUMPDEST JUMP JUMPDEST PUSH1 0x0 DUP1 PUSH1 0x0 SWAP1 SLOAD SWAP1 PUSH2 0x100 EXP SWAP1 DIV PUSH20 0xFFFFFFFFFFFFFFFFFFFFFFFFFFFFFFFFFFFFFFFF AND SWAP1 POP DUP2 PUSH1 0x0 DUP1 PUSH2 0x100 EXP DUP2 SLOAD DUP2 PUSH20 0xFFFFFFFFFFFFFFFFFFFFFFFFFFFFFFFFFFFFFFFF MUL NOT AND SWAP1 DUP4 PUSH20 0xFFFFFFFFFFFFFFFFFFFFFFFFFFFFFFFFFFFFFFFF AND MUL OR SWAP1 SSTORE POP DUP2 PUSH20 0xFFFFFFFFFFFFFFFFFFFFFFFFFFFFFFFFFFFFFFFF AND DUP2 PUSH20 0xFFFFFFFFFFFFFFFFFFFFFFFFFFFFFFFFFFFFFFFF AND PUSH32 0x8BE0079C531659141344CD1FD0A4F28419497F9722A3DAAFE3B4186F6B6457E0 PUSH1 0x40 MLOAD PUSH1 0x40 MLOAD DUP1 SWAP2 SUB SWAP1 LOG3 POP POP JUMP JUMPDEST PUSH2 0x854 DUP5 DUP6 PUSH20 0xFFFFFFFFFFFFFFFFFFFFFFFFFFFFFFFFFFFFFFFF AND PUSH4 0x23B872DD DUP7 DUP7 DUP7 PUSH1 0x40 MLOAD PUSH1 0x24 ADD PUSH2 0x80D SWAP4 SWAP3 SWAP2 SWAP1 PUSH2 0xE21 JUMP JUMPDEST PUSH1 0x40 MLOAD PUSH1 0x20 DUP2 DUP4 SUB SUB DUP2 MSTORE SWAP1 PUSH1 0x40 MSTORE SWAP2 POP PUSH1 0xE0 SHL PUSH1 0x20 DUP3 ADD DUP1 MLOAD PUSH28 0xFFFFFFFFFFFFFFFFFFFFFFFFFFFFFFFFFFFFFFFFFFFFFFFFFFFFFFFF DUP4 DUP2 DUP4 AND OR DUP4 MSTORE POP POP POP POP PUSH2 0x862 JUMP JUMPDEST POP POP POP POP JUMP JUMPDEST PUSH1 0x0 CALLER SWAP1 POP SWAP1 JUMP JUMPDEST PUSH1 0x0 DUP1 PUSH1 0x20 PUSH1 0x0 DUP5 MLOAD PUSH1 0x20 DUP7 ADD PUSH1 0x0 DUP9 GAS CALL DUP1 PUSH2 0x885 JUMPI PUSH1 0x40 MLOAD RETURNDATASIZE PUSH1 0x0 DUP3 RETURNDATACOPY RETURNDATASIZE DUP2 REVERT JUMPDEST RETURNDATASIZE SWAP3 POP PUSH1 0x0 MLOAD SWAP2 POP POP PUSH1 0x0 DUP3 EQ PUSH2 0x8A0 JUMPI PUSH1 0x1 DUP2 EQ ISZERO PUSH2 0x8BC JUMP JUMPDEST PUSH1 0x0 DUP5 PUSH20 0xFFFFFFFFFFFFFFFFFFFFFFFFFFFFFFFFFFFFFFFF AND EXTCODESIZE EQ JUMPDEST ISZERO PUSH2 0x8FE JUMPI DUP4 PUSH1 0x40 MLOAD PUSH32 0x5274AFE700000000000000000000000000000000000000000000000000000000 DUP2 MSTORE PUSH1 0x4 ADD PUSH2 0x8F5 SWAP2 SWAP1 PUSH2 0xA0D JUMP JUMPDEST PUSH1 0x40 MLOAD DUP1 SWAP2 SUB SWAP1 REVERT JUMPDEST POP POP POP POP JUMP JUMPDEST PUSH1 0x0 DUP1 REVERT JUMPDEST PUSH1 0x0 DUP2 SWAP1 POP SWAP2 SWAP1 POP JUMP JUMPDEST PUSH2 0x91C DUP2 PUSH2 0x909 JUMP JUMPDEST DUP2 EQ PUSH2 0x927 JUMPI PUSH1 0x0 DUP1 REVERT JUMPDEST POP JUMP JUMPDEST PUSH1 0x0 DUP2 CALLDATALOAD SWAP1 POP PUSH2 0x939 DUP2 PUSH2 0x913 JUMP JUMPDEST SWAP3 SWAP2 POP POP JUMP JUMPDEST PUSH1 0x0 PUSH1 0x20 DUP3 DUP5 SUB SLT ISZERO PUSH2 0x955 JUMPI PUSH2 0x954 PUSH2 0x904 JUMP JUMPDEST JUMPDEST PUSH1 0x0 PUSH2 0x963 DUP5 DUP3 DUP6 ADD PUSH2 0x92A JUMP JUMPDEST SWAP2 POP POP SWAP3 SWAP2 POP POP JUMP JUMPDEST PUSH1 0x0 DUP2 ISZERO ISZERO SWAP1 POP SWAP2 SWAP1 POP JUMP JUMPDEST PUSH2 0x981 DUP2 PUSH2 0x96C JUMP JUMPDEST DUP3 MSTORE POP POP JUMP JUMPDEST PUSH1 0x0 PUSH1 0x20 DUP3 ADD SWAP1 POP PUSH2 0x99C PUSH1 0x0 DUP4 ADD DUP5 PUSH2 0x978 JUMP JUMPDEST SWAP3 SWAP2 POP POP JUMP JUMPDEST PUSH2 0x9AB DUP2 PUSH2 0x909 JUMP JUMPDEST DUP3 MSTORE POP POP JUMP JUMPDEST PUSH1 0x0 PUSH1 0x20 DUP3 ADD SWAP1 POP PUSH2 0x9C6 PUSH1 0x0 DUP4 ADD DUP5 PUSH2 0x9A2 JUMP JUMPDEST SWAP3 SWAP2 POP POP JUMP JUMPDEST PUSH1 0x0 PUSH20 0xFFFFFFFFFFFFFFFFFFFFFFFFFFFFFFFFFFFFFFFF DUP3 AND SWAP1 POP SWAP2 SWAP1 POP JUMP JUMPDEST PUSH1 0x0 PUSH2 0x9F7 DUP3 PUSH2 0x9CC JUMP JUMPDEST SWAP1 POP SWAP2 SWAP1 POP JUMP JUMPDEST PUSH2 0xA07 DUP2 PUSH2 0x9EC JUMP JUMPDEST DUP3 MSTORE POP POP JUMP JUMPDEST PUSH1 0x0 PUSH1 0x20 DUP3 ADD SWAP1 POP PUSH2 0xA22 PUSH1 0x0 DUP4 ADD DUP5 PUSH2 0x9FE JUMP JUMPDEST SWAP3 SWAP2 POP POP JUMP JUMPDEST PUSH1 0x0 DUP2 SWAP1 POP SWAP2 SWAP1 POP JUMP JUMPDEST PUSH1 0x0 PUSH2 0xA4D PUSH2 0xA48 PUSH2 0xA43 DUP5 PUSH2 0x9CC JUMP JUMPDEST PUSH2 0xA28 JUMP JUMPDEST PUSH2 0x9CC JUMP JUMPDEST SWAP1 POP SWAP2 SWAP1 POP JUMP JUMPDEST PUSH1 0x0 PUSH2 0xA5F DUP3 PUSH2 0xA32 JUMP JUMPDEST SWAP1 POP SWAP2 SWAP1 POP JUMP JUMPDEST PUSH1 0x0 PUSH2 0xA71 DUP3 PUSH2 0xA54 JUMP JUMPDEST SWAP1 POP SWAP2 SWAP1 POP JUMP JUMPDEST PUSH2 0xA81 DUP2 PUSH2 0xA66 JUMP JUMPDEST DUP3 MSTORE POP POP JUMP JUMPDEST PUSH1 0x0 PUSH1 0x20 DUP3 ADD SWAP1 POP PUSH2 0xA9C PUSH1 0x0 DUP4 ADD DUP5 PUSH2 0xA78 JUMP JUMPDEST SWAP3 SWAP2 POP POP JUMP JUMPDEST PUSH1 0x0 PUSH2 0xAAD DUP3 PUSH2 0xA54 JUMP JUMPDEST SWAP1 POP SWAP2 SWAP1 POP JUMP JUMPDEST PUSH2 0xABD DUP2 PUSH2 0xAA2 JUMP JUMPDEST DUP3 MSTORE POP POP JUMP JUMPDEST PUSH1 0x0 PUSH1 0x20 DUP3 ADD SWAP1 POP PUSH2 0xAD8 PUSH1 0x0 DUP4 ADD DUP5 PUSH2 0xAB4 JUMP JUMPDEST SWAP3 SWAP2 POP POP JUMP JUMPDEST PUSH2 0xAE7 DUP2 PUSH2 0x9EC JUMP JUMPDEST DUP2 EQ PUSH2 0xAF2 JUMPI PUSH1 0x0 DUP1 REVERT JUMPDEST POP JUMP JUMPDEST PUSH1 0x0 DUP2 CALLDATALOAD SWAP1 POP PUSH2 0xB04 DUP2 PUSH2 0xADE JUMP JUMPDEST SWAP3 SWAP2 POP POP JUMP JUMPDEST PUSH1 0x0 PUSH1 0x20 DUP3 DUP5 SUB SLT ISZERO PUSH2 0xB20 JUMPI PUSH2 0xB1F PUSH2 0x904 JUMP JUMPDEST JUMPDEST PUSH1 0x0 PUSH2 0xB2E DUP5 DUP3 DUP6 ADD PUSH2 0xAF5 JUMP JUMPDEST SWAP2 POP POP SWAP3 SWAP2 POP POP JUMP JUMPDEST PUSH1 0x0 DUP1 REVERT JUMPDEST PUSH1 0x0 DUP2 SWAP1 POP DUP3 PUSH1 0x20 PUSH1 0x8 MUL DUP3 ADD GT ISZERO PUSH2 0xB58 JUMPI PUSH2 0xB57 PUSH2 0xB37 JUMP JUMPDEST JUMPDEST SWAP3 SWAP2 POP POP JUMP JUMPDEST PUSH1 0x0 DUP1 PUSH1 0x0 PUSH2 0x140 DUP5 DUP7 SUB SLT ISZERO PUSH2 0xB78 JUMPI PUSH2 0xB77 PUSH2 0x904 JUMP JUMPDEST JUMPDEST PUSH1 0x0 PUSH2 0xB86 DUP7 DUP3 DUP8 ADD PUSH2 0x92A JUMP JUMPDEST SWAP4 POP POP PUSH1 0x20 PUSH2 0xB97 DUP7 DUP3 DUP8 ADD PUSH2 0x92A JUMP JUMPDEST SWAP3 POP POP PUSH1 0x40 PUSH2 0xBA8 DUP7 DUP3 DUP8 ADD PUSH2 0xB3C JUMP JUMPDEST SWAP2 POP POP SWAP3 POP SWAP3 POP SWAP3 JUMP JUMPDEST PUSH1 0x0 DUP3 DUP3 MSTORE PUSH1 0x20 DUP3 ADD SWAP1 POP SWAP3 SWAP2 POP POP JUMP JUMPDEST PUSH32 0x416D6F756E74206D757374206265203E20300000000000000000000000000000 PUSH1 0x0 DUP3 ADD MSTORE POP JUMP JUMPDEST PUSH1 0x0 PUSH2 0xBF9 PUSH1 0x12 DUP4 PUSH2 0xBB2 JUMP JUMPDEST SWAP2 POP PUSH2 0xC04 DUP3 PUSH2 0xBC3 JUMP JUMPDEST PUSH1 0x20 DUP3 ADD SWAP1 POP SWAP2 SWAP1 POP JUMP JUMPDEST PUSH1 0x0 PUSH1 0x20 DUP3 ADD SWAP1 POP DUP2 DUP2 SUB PUSH1 0x0 DUP4 ADD MSTORE PUSH2 0xC28 DUP2 PUSH2 0xBEC JUMP JUMPDEST SWAP1 POP SWAP2 SWAP1 POP JUMP JUMPDEST PUSH32 0x4E487B7100000000000000000000000000000000000000000000000000000000 PUSH1 0x0 MSTORE PUSH1 0x11 PUSH1 0x4 MSTORE PUSH1 0x24 PUSH1 0x0 REVERT JUMPDEST PUSH1 0x0 PUSH2 0xC69 DUP3 PUSH2 0x909 JUMP JUMPDEST SWAP2 POP PUSH2 0xC74 DUP4 PUSH2 0x909 JUMP JUMPDEST SWAP3 POP DUP3 DUP3 ADD SWAP1 POP DUP1 DUP3 GT ISZERO PUSH2 0xC8C JUMPI PUSH2 0xC8B PUSH2 0xC2F JUMP JUMPDEST JUMPDEST SWAP3 SWAP2 POP POP JUMP JUMPDEST PUSH32 0x4E6F20736B696E20696E207468652067616D6520285A61702066697273742900 PUSH1 0x0 DUP3 ADD MSTORE POP JUMP JUMPDEST PUSH1 0x0 PUSH2 0xCC8 PUSH1 0x1F DUP4 PUSH2 0xBB2 JUMP JUMPDEST SWAP2 POP PUSH2 0xCD3 DUP3 PUSH2 0xC92 JUMP JUMPDEST PUSH1 0x20 DUP3 ADD SWAP1 POP SWAP2 SWAP1 POP JUMP JUMPDEST PUSH1 0x0 PUSH1 0x20 DUP3 ADD SWAP1 POP DUP2 DUP2 SUB PUSH1 0x0 DUP4 ADD MSTORE PUSH2 0xCF7 DUP2 PUSH2 0xCBB JUMP JUMPDEST SWAP1 POP SWAP2 SWAP1 POP JUMP JUMPDEST PUSH32 0x416C726561647920766F74656400000000000000000000000000000000000000 PUSH1 0x0 DUP3 ADD MSTORE POP JUMP JUMPDEST PUSH1 0x0 PUSH2 0xD34 PUSH1 0xD DUP4 PUSH2 0xBB2 JUMP JUMPDEST SWAP2 POP PUSH2 0xD3F DUP3 PUSH2 0xCFE JUMP JUMPDEST PUSH1 0x20 DUP3 ADD SWAP1 POP SWAP2 SWAP1 POP JUMP JUMPDEST PUSH1 0x0 PUSH1 0x20 DUP3 ADD SWAP1 POP DUP2 DUP2 SUB PUSH1 0x0 DUP4 ADD MSTORE PUSH2 0xD63 DUP2 PUSH2 0xD27 JUMP JUMPDEST SWAP1 POP SWAP2 SWAP1 POP JUMP JUMPDEST PUSH1 0x0 DUP2 SWAP1 POP SWAP2 SWAP1 POP JUMP JUMPDEST PUSH1 0x0 PUSH2 0xD8F PUSH2 0xD8A PUSH2 0xD85 DUP5 PUSH2 0xD6A JUMP JUMPDEST PUSH2 0xA28 JUMP JUMPDEST PUSH2 0x909 JUMP JUMPDEST SWAP1 POP SWAP2 SWAP1 POP JUMP JUMPDEST PUSH2 0xD9F DUP2 PUSH2 0xD74 JUMP JUMPDEST DUP3 MSTORE POP POP JUMP JUMPDEST DUP3 DUP2 DUP4 CALLDATACOPY POP POP POP JUMP JUMPDEST PUSH2 0xDBB PUSH2 0x100 DUP4 DUP4 PUSH2 0xDA5 JUMP JUMPDEST POP POP JUMP JUMPDEST PUSH1 0x0 PUSH2 0x1A0 DUP3 ADD SWAP1 POP PUSH2 0xDD5 PUSH1 0x0 DUP4 ADD DUP10 PUSH2 0x9A2 JUMP JUMPDEST PUSH2 0xDE2 PUSH1 0x20 DUP4 ADD DUP9 PUSH2 0xD96 JUMP JUMPDEST PUSH2 0xDEF PUSH1 0x40 DUP4 ADD DUP8 PUSH2 0xD96 JUMP JUMPDEST PUSH2 0xDFC PUSH1 0x60 DUP4 ADD DUP7 PUSH2 0x9A2 JUMP JUMPDEST PUSH2 0xE09 PUSH1 0x80 DUP4 ADD DUP6 PUSH2 0x9A2 JUMP JUMPDEST PUSH2 0xE16 PUSH1 0xA0 DUP4 ADD DUP5 PUSH2 0xDAE JUMP JUMPDEST SWAP8 SWAP7 POP POP POP POP POP POP POP JUMP JUMPDEST PUSH1 0x0 PUSH1 0x60 DUP3 ADD SWAP1 POP PUSH2 0xE36 PUSH1 0x0 DUP4 ADD DUP7 PUSH2 0x9FE JUMP JUMPDEST PUSH2 0xE43 PUSH1 0x20 DUP4 ADD DUP6 PUSH2 0x9FE JUMP JUMPDEST PUSH2 0xE50 PUSH1 0x40 DUP4 ADD DUP5 PUSH2 0x9A2 JUMP JUMPDEST SWAP5 SWAP4 POP POP POP POP JUMP INVALID LOG2 PUSH5 0x6970667358 0x22 SLT KECCAK256 CREATE 0xC2 EXP 0xBC 0xFB 0xB5 SWAP9 0xC8 ADD MULMOD PUSH25 0x7B71BF4F25BB3D5A0F9E78C7C63BFD49B108978D0964736F6C PUSH4 0x43000814 STOP CALLER "},"methodIdentifiers":{"externalNullifier()":"70bb640f","nullifierHasVoted(uint256)":"1900ff27","owner()":"8da5cb5b","renounceOwnership()":"715018a6","transferOwnership(address)":"f2fde38b","voteWithWorldID(uint256,uint256,uint256[8])":"ee033bce","votingPower(address)":"c07473f6","wldToken()":"9be3783d","worldIdRouter()":"9f50b66d","zap(uint256)":"a1a1c804"}}}}}